:1000000050540020F143000015430100C543000097
:10001000C5430000C5430000C543000000000000C8
:10002000000000000000000000000000D13C0000C3
:10003000C543000000000000793C0000C5430000FB
:10004000553D0000553D0000553D0000553D000068
:10005000553D0000553D0000553D0000553D000058
:10006000553D0000553D0000553D0000553D000048
:10007000553D0000553D0000553D0000553D000038
:10008000553D0000553D0000553D0000553D000028
:10009000553D0000553D0000553D0000553D000018
:1000A000553D0000553D0000553D0000553D000008
:1000B000553D0000553D0000553D0000553D0000F8
:1000C000553D0000553D0000553D0000553D0000E8
:1000D000553D0000553D0000553D0000553D0000D8
:1000E000553D0000553D0000553D0000553D0000C8
:1000F000553D0000553D0000553D0000553D0000B8
:1001000053B94AB9002908BF00281CBF4FF0FF317E
:100110004FF0FF3000F00CB8ADF1080C6DE904CEE3
:1001200000F008F8DDF804E0DDE9022304B07047D0
:10013000704700BF2DE9F04786468C460846089E6A
:10014000154674461946002B40F0C2808542B2FA2B
:1001500082F245D94AB1C2F1200300FA02FC2EFA1C
:1001600003F3954043EA0C0C94404FEA154EA8B2B5
:10017000BCFBFEF8230C0EFB18CC08FB00F943EA8D
:100180000C43994528D9EB1808F1FF3704D299455B
:1001900002D9A8F102072B44A3EB0903A4B2B3FBD5
:1001A000FEFC0EFB1C330CFB00F044EA0344A042AF
:1001B00014D92C190CF1FF3304D2A04202D9ACF1AE
:1001C00002032C44241A43EA07401EB1D440002302
:1001D00034607360BDE8F0874746DDE76346F1E7CA
:1001E00092BB431B01214FEA154EAFB2B3FBFEFC9D
:1001F000200C0EFB1C330CFB07F840EA0343984528
:1002000062D9EB180CF1FF3004D2984502D9ACF159
:1002100002002B44A3EB0803A4B2B3FBFEFC0EFBCD
:100220001C330CFB07F744EA0344A7424ED92C19B0
:100230000CF1FF3304D2A74202D9ACF102032C44E3
:10024000E41B43EA0040C0E7C2F1200320FA03F1B7
:10025000954090402EFA03F303434FEA154EAFB298
:10026000B1FBFEFC0EFB1C10190C0CFB07F841EA5D
:100270000041884504FA02F422D969180CF1FF30D4
:1002800004D2884502D9ACF102002944A1EB08014F
:100290009BB2B1FBFEFC0EFB1C110CFB07F743EA03
:1002A00001439F420ED9EB180CF1FF3104D29F425B
:1002B00002D9ACF102012B44DB1B41EA004192E779
:1002C0006046E3E76146F7E76046A3E76346B7E7C2
:1002D000834206D916B9002108467BE7C6E900E04B
:1002E000F9E7B3FA83F78FB9834201D3724508D88F
:1002F000BEEB020460EB030301209C461EB9002103
:1003000068E73846FAE7C6E9004CF8E7C7F1200C81
:10031000BB4022FA0CF41C432EFA0CF120FA0CF329
:10032000B84001434FEA14490EFA07F5B3FBF9F858
:100330001FFA84FE09FB18300B0C08FB0EFA43EA87
:1003400000439A4502FA07F240D9E31808F1FF305A
:1003500004D29A4502D9A8F102002344A3EB0A0370
:1003600089B2B3FBF9F809FB183308FB0EFE41EA2A
:1003700003418E452CD9611808F1FF3304D28E4514
:1003800002D9A8F10203214443EA0040A0FB0298ED
:10039000A1EB0E014145CE46434602D306D14D4561
:1003A00004D2B9EB020E68EB04030138002EA6D08C
:1003B000B5EB0E0261EB030101FA0CFC22FA07F324
:1003C0004CEA0303F940C6E9003198E74046C5E727
:1003D0004346D9E7034611F8012B03F8012B002A05
:1003E000F9D17047034613F8012B002AFBD1181AE4
:1003F00001387047000000002DE9804841F2EC30E0
:10040000BFB004F0A1F9B24BB24F18600EF0F4FD8A
:10041000B1480EF091FD0EF0DDFDB04A00231370DF
:10042000AE4B1B78002BFDD18DF843300EF044FE0F
:100430000FF064FE012809D10DF142000FF082FE99
:100440009DF8423013F0DF0F00D0FEE79EA4D4E900
:100450000034C7E900340A233B819F4BFB60A04B6B
:100460003B619B4BDFF87C821B68BB6100233B75C3
:100470000DF1430300939C4A964841F2EC35022368
:100480004146FD6117F01FFE9DF84360044606B12A
:10049000FEE7012840F012810EF036FE934A1892D2
:1004A000934A1A928A4AB8F80230126898F802A061
:1004B00098F803B0CDE91C66CDE91E255BBA864AE3
:1004C00004920DF142050595ADF83E301CAB0FCB03
:1004D0008DE80F004FF002090526CDF864901B96B9
:1004E00018AB0FCB0EF07CFE9DF84230002B40F095
:1004F000DA80B8F800208DF85830ADF85A208DF821
:100500005E308DF85CA08DF85DA0DDE916012A460D
:100510000EF05EFFDFF8DC819DF84230C8F8000085
:10052000002B40F0C08021466B4A11942B460FF0FF
:1005300017F89DF84210002940F0B58035220DF1E2
:1005400087001BF00DFC6C4B20936C4B624A0D95A1
:10055000CDE924340C928DF88D908DF899408DF86A
:100560009A400DF18C0EBEE80F00EC468DF885B078
:100570008DF8A4408DF884A08DF88640CDF8889041
:10058000ACE80F00BEE80F00ACE80F009EE80F00DB
:100590008CE80F0020AB0ECBD8F80000DFF860B17C
:1005A0000FF026F99DF84230CBF80000002B7AD1ED
:1005B000544BDFF854A1129303238DF84C30D146ED
:1005C00059F8043B8DF848300095DDE91223D8F83E
:1005D0000010DBF800000FF03DFC9DF84230002BCE
:1005E00061D1013E16F0FF06EAD1314635220DF108
:1005F000C3001BF0B5FB0222444B8DF8C9202F939A
:100600003192BDF83E30424AADF8C0300123CDE909
:1006100033238DF8D5308DF8D6308DF8C2302E4B7F
:100620000D950C930DF1C80CBCE80F006E460FC67B
:10063000BCE80F000FC69CE80F0086E80F002FAB48
:100640000ECBD8F80000DFF8CC900FF0D1F89DF871
:100650004230C9F8000033BB2A4B149303238DF8B2
:10066000543005260DF1500B5AF8043B8DF85030EC
:1006700000959BE80C00D8F80010D9F800000FF0A6
:10068000E9FB9DF8423073B9013E16F0FF06EBD14D
:100690002149D9F800002A460FF0AEFCD8F8000036
:1006A00029460FF0F9FC9DF8423003B1FEE70DF149
:1006B00042000FF029FD094B1C70B1E617F0A7FCB2
:1006C0003446F8E7AFF3008078563412000000009B
:1006D000642D002040130020182D0020C43A002073
:1006E0000D800100B833002020130020C00400203A
:1006F000AC040020142D0020F7E70100082D002095
:100700000C2D002000030600E4C6010005E80100EE
:10071000A8040020102D002001EF000010B525488E
:1007200012F073FC0446234812F06FFC0443224885
:1007300012F06BFCE4B204431F4812F066FCE4B212
:1007400004431D4812F061FCE4B204431A48E4B2C9
:1007500012F05BFC00B9ACB1184812F03CFC184830
:1007600012F039FC174812F036FC174812F033FC2F
:10077000164812F030FC00F04DFA014620B1144842
:1007800012F031FD002010BD08F056FA044610B1F9
:1007900001461048F4E7FFF72FFE013404F0010191
:1007A000002008F085FA00214FF400400EF086F892
:1007B000F3E700BFBCBE0100A8BE010048C10100B4
:1007C00040C1010038C1010030C1010028C1010051
:1007D00024CD010042CD010010B5044B1B689847A1
:1007E000034BBDE810401B68184700BFBC00002049
:1007F000B800002010B5044B1B689847034BBDE8B8
:1008000010401B68184700BFBC000020B400002047
:10081000014B1B68184700BFB0000020002808DB10
:100820004309044900F01F0001226033824041F86F
:100830002320704700E100E073B5344C2269A568BD
:10084000136823F48073136008212B684FF48032FF
:1008500020469847014600283CD022682C480823AF
:1008600012F0C1FC2F2012F0D3FB2A4E2A4D30602B
:10087000044612F0CDFB00232860284A009306218D
:10088000204613F03AFD96F900402046FFF7C6FFD8
:10089000002C07DB224A6109012304F01F04A34056
:1008A00042F82130002300931E4A2868052113F0E6
:1008B00024FD95F900402046FFF7B0FF002C07DB30
:1008C000174A6109012304F01F04A34042F82130B4
:1008D00002B070BD0821AE694FF080634FF0A07286
:1008E0002046B047014618B122680F480823B7E7F1
:1008F0000E490F4B4B604FF480738B60EB69002BFC
:10090000B0D0012220469847ACE700BFA8BE010046
:1009100072CD0100D8170020D41700201108000064
:1009200000E100E0F507000098CD0100C8170020A5
:10093000D9070000014B1860704700BFB8000020C5
:10094000014B1860704700BFB4000020014B1860D5
:10095000704700BFB000002010B5044B1B689847DB
:10096000034BBDE810401B68184700BFBC000020C7
:10097000B8000020024B0122C3F80021704700BFDD
:1009800000E100E010B402460B46034881680C68A1
:100990000249A44610BC604720BF0100DC170020BC
:1009A00010B50B4C204616F041FF58B92168094894
:1009B00012F019FC084812F067FBBDE81040074828
:1009C00012F062BB064B0749074AC3E90012F1E780
:1009D00020BF0100CBCD010058C1010050C1010072
:1009E000DC17002048E801000001010013B50848A9
:1009F0000469836801A95B68984720B92368019856
:100A00005840C0F30020003818BF012002B010BDCC
:100A1000A8BE010010B4054883689C694FF0A0721D
:100A2000A4464FF0806310BC08216047A8BE0100B7
:100A300010B4054883689C694FF40012A446002353
:100A400010BC0821604700BFA8BE010008B5054BD7
:100A50000548196812F0C7FBBDE80840002003F004
:100A6000A1B800BF20BF0100E2CD010008B5054BD1
:100A70000548196812F0B7FBBDE80840002003F0F4
:100A80009FB800BF20BF010013CE01000148012123
:100A900012F0E6BA58C101000148002112F0E0BA94
:100AA00058C101000148012112F0DABA50C1010019
:100AB0000148012112F0D4BAC000002001480021F1
:100AC00012F0CEBAC0000020F0B5074689B00E463D
:100AD0001446114D284616F0A9FE30B929680F4872
:100AE00009B0BDE8F04012F07EBB012302AA06A9BE
:100AF00004A8CDE90074CDE90264CDE90623CDF860
:100B000010D00593FFF73EFF18B12968044812F092
:100B10006AFB09B0F0BD00BF20BF0100CBCD0100D2
:100B200045CE0100F0B507468BB00E461546124C77
:100B3000204616F07BFE30B9216810480BB0BDE8A6
:100B4000F04012F050BB02AB069304AA0123CDE99A
:100B50000823CDE90275CDE90465002207930192CF
:100B6000A368074A00925D68064908AB06AA2046BA
:100B7000A8470BB0F0BD00BF20BF0100CBCD0100E6
:100B800075090000DC17002008B5034816F04EFE7A
:100B900080F00100C0B208BD20BF010008B5044BC1
:100BA0000448196812F01FFBBDE80840FFF7D4BEE7
:100BB00020BF010071CE0100024B0122C3F80021C9
:100BC000704700BF00E100E010B5044CD4E90023F9
:100BD000501C43F10001C4E9000110BD380B002096
:100BE00013B5074C07490022204617F00FF92122C0
:100BF0000023CDE9002320460EF0D8F802B010BD46
:100C0000000B0020C90B0000014BD3E90001704725
:100C1000380B002037B50020019001F0B1FF0446E9
:100C200090B90A4D019B13B1204603B030BDAB68AB
:100C30001B6D1BB101AA042128469847002140F6EC
:100C4000CD400DF03BFEEDE70224EDE7D0BE010004
:100C50002DE9F04F91B08407009302F00403029352
:100C6000C2F3C20303F10103DDF868900392054665
:100C70000E46059340F0BA81041D30B1072909D80A
:100C80006FF01B0011B0BDE8F08F01F00706341DB6
:100C9000C6F10806009B4FF00008591E4FF0040AE9
:100CA0004FF0FF330193CDF810804746C3465346BB
:100CB0000DB1009A22600598002800F3E88098485A
:100CC000009A824203D397488242C0F0E080039AA0
:100CD000A4EB050E92074FEA9E0000F103810F2F4F
:100CE00000F2B180002D00F0058107F140020DEB0C
:100CF000020C019A0CF8200C0CF8102C049801300E
:100D00000490E7E07A285DD84B280ED8472859D8B8
:100D100029282DD8252852D054D820287AD02338F5
:100D2000D0F1000B4BEB000B74E04C382E2849D867
:100D3000DFE800F070484848484848484848484874
:100D40004B484848484848484859484B4B595959D6
:100D5000704B6D487048184B184848827F4B484884
:100D60004B487F0000204FF0000B4FF0040A38E0A2
:100D70002A38C0B2012202FA00F010EA0E0F49D15F
:100D800010F0625C2FD110EA020B43D06046013CA8
:100D90005444B4FBFAF40AFB04F4002D61D0A3EB35
:100DA000050CA4446645FFF46BAF002868D1042B02
:100DB00047D159F8043B2360043404232AE0019A04
:100DC000013A01924FF0000B24E011F8010C6C285D
:100DD00034D111F8023C00206C2B8346C5D14FF072
:100DE000080A5346D3E709F1070929F00709073430
:100DF000F9E802AB24F0070435B106982044B0426C
:100E00003FF63EAFC4E900AB08344FF0000B4FF0A3
:100E1000080A534611F8010F002878D0BBF1000FE3
:100E20007FF470AF2528F5D1019B013301934FF07A
:100E3000010B4FF0040AECE7584694E70020834684
:100E4000A5E7082B02D06FF015001BE709F1070991
:100E500029F00709F9E80223C4E90023083408232C
:100E6000D8E768B9042B02D109F10409A4E7082BDB
:100E7000E9D109F1070929F0070909F10809EDE7A6
:100E8000059A013A059259F8042B009210E7039A4B
:100E9000900720D5A4EB050E4FEA9E004FF0010C01
:100EA000BEF5007FCFD20F2FCDD8F5B107F14002AC
:100EB0000DEB020EC0B2019A0EF8200C0EF8102CA9
:100EC000BCF1000F3FF41AAF60F07F000EF8200C69
:100ED00008F101080137C5F10802043406924FF603
:100EE000DA7E97E74FF0000CDAE7BCF1000F01D093
:100EF0000136EFE7029802360028EBD10098CDE9E1
:100F00000631FFF76FFADDE906310644E2E7631BBD
:100F1000B3F5806F97D23DB9A6F10804E018B1E6A9
:100F200094BD010048E90100029A28609B082B70DB
:100F30009DF81030C2B1EB7085F80280B8F1000F57
:100F400005D008A80022C5F1010C97420ED1C5F1C9
:100F500001030DF120094FF0000A01930DF1300B50
:100F6000574512D1601B8DE66B70E5E710F8013B29
:100F7000190608D504EB0C0E764503F07F03FFF449
:100F80007FAE04F8013B0132DFE7B8F1000F03D078
:100F900099F90020002A17DB029BD3B11AF80B2025
:100FA00004F8012B0022019B981820448642FFF48C
:100FB00067AE99F8000004F8010B009903922046EF
:100FC0001AF0A6FE039A14440AF1010A09F1010974
:100FD000C6E799F8002055F822300093029B45F8A7
:100FE00022300098FFF7FEF9421CDCE76FF00D009D
:100FF00048E600BF2DE9F04F95B000AF90F802B081
:10100000BB61BB6F7A62C3F3C00304463B618A468F
:1010100041B9457800780BEB80002044554517D83E
:10102000A0EB040AE3787B61BBF1000F02D0BB6F39
:10103000D80716D47B6953BB7B6A1BB1BA6951468A
:1010400020469847554628465437BD46BDE8F08FA0
:10105000461C3046FFF7C6F9013030440AF1010A58
:10106000DCE723783B629B00FB603B6A6268FA61C5
:1010700004EB83097B6A002B40F0FE805546C8468E
:1010800009EB0B0A0026D04551D1D94413E0BB6FC0
:101090009907D1D523783B6299469B00FB60636832
:1010A000FB617B6A04EB8909002B7AD15546BBF1C1
:1010B000000F4FD15E46BB6F13F0050F7B6909EB44
:1010C000430ABB6F03F002030CBF4FF0020B4FF05B
:1010D000010B7B62D145B6D019F8021B19F8013C0F
:1010E00054F82380AA4B984502D3AA4B984538D38D
:1010F0003B69002B42D0F86912F04EF800283DD031
:10110000E8468AB06A46A44B5361FB69C2E90631DE
:101110004FF400731384A14B42F8103FA048002302
:101120004FF4125100F020FD023DC546D2E718F8F9
:10113000013B54F82300FFF755F9FB6F01303BB139
:10114000D7F880309E423EBFFB6F23F81600013671
:10115000054498E7BB6F13F004061CBF7E6AD944B0
:10116000A9E73B6923B1F86912F016F80028C7D146
:10117000BB6FDA0705D4A5EB0B05ABE77B6A002B49
:10118000A8D04046FFF72EF9FB6F43B1D7F8803067
:101190009E423FBFFA6F431C22F8163001360544C9
:1011A00098E7BBF1000F6DD0BB6F13F004066CD055
:1011B000D846002607F140005A4649461AF0A8FDD5
:1011C0007B695B007B607B69D94409EB4303BB60AF
:1011D000BB6F03F002033B60BB684B4557D1B96F4F
:1011E0006378B86F890706EB030254BF4FEA5801D2
:1011F0000021C507D2B200F19A8010F0040F14BF8D
:1012000040460020FB616270A070E170BA69F96825
:101210007B6A20469847051EFFF615AF3B6A237090
:10122000FB6963707B69E3704146BA697B6A84F845
:1012300002B007F140009847B0F10008C0F2A48066
:10124000FB68BA69AAEB0B01C91A7B684846C91A40
:101250007B6A98470028C0F29980A84408EB0005F3
:101260004FF0000B07F1300AB34562D30021BA6991
:101270007B6A08469847E6E65E464FF0000807F1AD
:10128000300099E75E46D8469AE7B04698E719F8E5
:10129000021B3F4B19F8015C54F82500984202D319
:1012A0003C4B98421DD33B6923B1F86911F074FFA0
:1012B000002891D13B68FBB908F1280307F1280207
:1012C00008F1010003EB020C07F1500353FA80F020
:1012D00008F102080CF8101C5FFA88F800F8105C9E
:1012E0007AE73B692BB1F86911F056FF00287FF4CB
:1012F00073AFBB6FDB0709D506F1280307F128029E
:10130000711C9E1806F8205CCEB265E7BB6F5807CB
:101310007FF562AF08F1280307F1280208F1010107
:1013200003EB020808F8105C5FFA81F854E700202C
:1013300068E71BF80A3087F82F3054F82390FB6FCA
:10134000FBB133F81B80BA697B6A012107F12F00DA
:10135000984700281ADB0544B8F1000F06D148462B
:10136000FFF740F800F101081FFA88F8BA697B6AB4
:10137000414648469847002808DB05440BF1010B1D
:1013800072E7D7F87C80DEE745465CE605465AE61C
:1013900094BD010048E90100A0CE01000400000155
:1013A00010C00100014B1860704700BFCC00002046
:1013B00080B505460E46174698460DF0B3FA03462B
:1013C0001AF0DEFCDFF81890044649F80030424677
:1013D00030463946A84754F8090003F089F800BFA1
:1013E000100000002DE9F047058B044628079046C1
:1013F00011D4022905F0070540F0CD80204612F0F7
:10140000E5F878B10138218B042811D8DFE800F025
:10141000C3106D85950001290CBF45F0100545F0FE
:101420002005258388F31188BFF36F8FBDE8F0870F
:1014300001F0070AAA4500F0A6800027B9463E46FB
:10144000A368002B00F0BD8041F00801218388F3E0
:101450001188BFF36F8FA168002900F0BB800D6871
:10146000002900F0B780D1F8048033465246204668
:10147000C047002D76D02B6829461D46F0E701F0C5
:1014800007035A1F012A1BD8002221F00701062B4F
:10149000276889B2C4E9002209D13B4603E0628B88
:1014A000013262831B68002BF9D141F002012183D4
:1014B000204612F08BF800287BD041F0200177E025
:1014C000042B0AD121F0070189B22183204612F0B2
:1014D0007DF810B141F020012183218B01F0070A32
:1014E000AA4550D00027B946AAE7236921F0070191
:1014F00041F00601062DD3F8009021832DD1B9F1DA
:10150000000F40D041F00801218388F31188BFF318
:101510006F8F3A492046C84729E021F00701236927
:1015200041F0040189B2042DD3F804902183E6D060
:1015300000273E464FF0040A82E721F007012369A5
:1015400041F0050189B2052DD3F808902183D6D04A
:1015500000273E464FF0050A72E700273E464FF04F
:10156000060A6DE72B4687E7B9F1000FD1D14FF09E
:101570002003EFF3118883F31288BFF36F8F238B5F
:1015800023F008032383258BEA062ED525F01003CC
:10159000238305F007056669218B002EBFF66FAF28
:1015A00000232768C4E9003321F0070141F001015D
:1015B0002183218B01F0070AAA454FF000097FF42F
:1015C0003FAF002F9BD041F00801218388F31188A1
:1015D000BFF36F8F002FC7D03D6839463346524660
:1015E000204612F01FF82F46F4E7AB067FF51AAF3E
:1015F00025F02003238305F00705FFE6513601009F
:1016000008B504464FF02002EFF3118382F31288ED
:10161000BFF36F8F07F0C4FA204602F013FF0348B0
:1016200011F0E1FD02F02AFAFCE700BF54CF0100FF
:1016300009F044BA2DE9F047DFF858800446074620
:101640004FF0010914B93846BDE8F08794FAA4F5C3
:10165000B5FA85F509FA05F32E0108EB05156FEAD1
:10166000030A24EA03042B7B002BEBD058F8063046
:101670001B694BB94644022273682846196807EA79
:101680000A0700F05DFADDE7284698470028D9D11F
:10169000F0E700BFD8C0010030B51049104889B04C
:1016A000002216F0B3FB0F4D0F4900220023CDE9B5
:1016B000062300240E23CDE90334CDE901440B4B6E
:1016C00000944FF4407228460CF0F6FA0849284678
:1016D00016F00BF9204609B030BD00BFF51600002A
:1016E000C80F0020400B0020103C0020E51900002E
:1016F0007DCF010001480CF051BC00BFE80900207B
:101700002DE9F04780461F480F4612F099FB064628
:10171000002830D000252846BDE8F087237B73B130
:101720002368DB680BB12046984723681B69D3B94F
:10173000636802221968204600F002FA013610346C
:101740004C45EBD3B8F1000FE5D0002DE2D0284690
:10175000FFF770FF0546002FF7D000214FF4A4706B
:101760000DF0ACF8F1E7204698470028E0D00AFADF
:1017700006F31D43E2E7044CDFF8109005464FF0F6
:10178000010ADDE700180020D8C00100F8C0010000
:10179000014B53F82000704774C1010008B503469F
:1017A00008462BB1044A136000F07EFC002008BDFF
:1017B0006FF01500FBE700BFD000002010B5044C0F
:1017C000237813B903480CF0E9FB0123237010BD03
:1017D000BE330020E809002010B50446084812F086
:1017E0002FFB5CB1BFF35B8F064B53E8001F013941
:1017F00043E80012002AF8D1BFF35B8F10BD00BF91
:10180000F8170020FC1700200020064BBFF35B8F69
:10181000014653E8000F43E80012002AF9D1BFF354
:101820005B8F7047F817002070B5FFF7EDFF084C8D
:10183000084E0546B44200D370BD63685B792BB196
:1018400023685B6813B12946204698471034F1E7B6
:10185000D8C00100F8C0010010B5044C044920466E
:1018600012F07FF9034B1C6010BD00BF88080020F8
:1018700060C10100F0170020084A094808B500239C
:101880001370084A1360084A4FF400411360FFF7D1
:1018900085FFBDE80840FFF7DFBF00BFBF33002072
:1018A0003D3E0100F8170020FC17002001460022F1
:1018B0000148002312F076B988080020014812F090
:1018C0000FBA00BF88080020024B0146186812F0CA
:1018D00059BA00BFF0170020014812F08FBA00BFBC
:1018E0008808002070B5284B187800284BD0FFF7E7
:1018F000E5FF054690B1BFF35B8F244B53E8001F13
:10190000013943E80012002AF8D1BFF35B8F204C65
:10191000204EB4422DD32846FFF7D6FF1E4B1F4C56
:101920001B68002B19DD16F02AFA4FF47A72A0FB1F
:10193000020302FB0131C30BD4E9002043EA414317
:101940009B1A4FEAD13140F2E93261EB0001934238
:1019500071F1000101D3FFF767FFD4E9003213F5FD
:101960007A7342F10002C4E90032BDE87040FFF72B
:10197000B3BF63685B7923B1236829461B6820469F
:1019800098471034C5E770BDBE330020FC17002017
:10199000D8C00100F8C00100F8170020C00F0020D7
:1019A00070B50D4D297861B90120FFF7A9FE0B4CE8
:1019B0000B4EB44206D3FFF795FF0028FBD101235D
:1019C0002B7070BD63685B791BB1236820469B68F0
:1019D00098471034EDE700BFBF330020D8C00100A6
:1019E000F8C0010000212DE9F0470846FFF788FE06
:1019F000044658B340F267684FF000091AF0C0F986
:101A00001B4B1C4A1B58136033B11B4B1B68092B23
:101A100002DD1A480CF0C2FA194FDFF860A0002569
:101A200044B12046FFF706FE044618B94FF0FF38D0
:101A30004FF0FF39FFF756FF064628B9B5B94246C1
:101A40004B4650460CF0D0FA3546E9E74FF0FF38E8
:101A50004FF0FF39D2E72B689B691BB1002211467A
:101A6000284698471035BD42F5D3E8E7054DFAE71B
:101A700010000000F4170020FC170020E8090020E7
:101A8000F8C00100D8C0010013B5184812F0D8F909
:101A9000174B1B787BB14FF02003EFF3118483F3D6
:101AA0001288BFF36F8FFFF71DFF84F31188BFF318
:101AB0006F8F02B010BD0F4B1B68002BF9D050B9CF
:101AC00000220023CDE900230B484FF400420023FD
:101AD0000DF06CF9EDE70928EBD1074816F0A2F9F3
:101AE000064802B0BDE810400CF058BAFC170020C0
:101AF000BF330020F4170020C80F0020E8090020A1
:101B000010B5064B1B68044698472146A060044860
:101B100012F0C6F8BDE81040FFF7B6BFD0000020B5
:101B200088080020044A054B9B1AB1EBD30F34BF41
:101B300052F8310000207047C0BF0100D8C001003A
:101B4000084BC31A10B41B11446801332371436856
:101B50009A7143681960436801225A7110BCFFF7FB
:101B60002DBE00BFD8C001002DE9F04F8FB004AFEB
:101B7000C1F34A28B8600D4691467B600C0DB8F160
:101B8000000F63D0002607F114034FF0040B4FF051
:101B90000A0AC7F80C80C7E907667E620193CDF890
:101BA00008B0CDF800A007F11C03F968324648469A
:101BB000FFF720FAB0F5006F03461CD36C468AB0DD
:101BC000D9F8041004AB2648C3E9050140F2FF71BF
:101BD000D9611A464FF400711984224B42F8103F24
:101BE000214833464FF41251FFF7BEFFA5462C376C
:101BF000BD46BDE8F08FC0F30A0804F11700184491
:101C000020F0070080083B60FFF750FE68F3532583
:101C1000044690B13B68154AC7E9083600F1100147
:101C200007F11403F961CDE900A3CDF808B0F96814
:101C300007F11C034846FFF7DDF968F353257B687D
:101C4000B9682A46204612F031F9D0E704F11700AE
:101C500020F007008008FFF729FE0446EDE700BFEB
:101C600092CF01000400000150C00100813E01003C
:101C70002DE9F04F87B0DDE91269DDE9105A04461D
:101C80000F4693469846A6B31021CDF800903346F0
:101C900052460020CDF81490FEF7DAFF014605F118
:101CA00017000844144B039104F007040BF0070BD2
:101CB000E40020F0070003EA412344EA8B14800883
:101CC0001C43FFF7F3FD44EA0554054640B13EB11D
:101CD0000399CDF80090334652461030FEF7B8FF16
:101CE000434622463946284607B0BDE8F04F12F079
:101CF000DDB83146D3E700BF00FE0F000EB403B5D8
:101D000003AB014653F8042B0448019302F0DCFCBA
:101D100002B05DF804EB03B0704700BF133F010051
:101D2000CA0605D48B064CBF02490349FFF7E6BF3C
:101D3000704700BFD2CF0100D1CF01002DE9F04F95
:101D400089B09B469DF84C300493DDE914930593CC
:101D5000049B0692DDE9167604460D46002B00F042
:101D6000878006F00803079312F088F806F0020A4D
:101D7000024600284BD086492046FFF7BFFF804629
:101D8000BAF1000F08D016F0440F42D181492A461B
:101D90002046FFF7B3FF804406F001035BB17E4BA2
:101DA000049A7E4953F822207D4B2046002A08BF22
:101DB0001A46FFF7A3FF06F00803002B55D0794B16
:101DC000049A794953F822202046FFF797FF0546E9
:101DD000069B2BB175491A462046FFF78FFF054435
:101DE000BBF1000F05D072495A462046FFF786FF27
:101DF00005444544B9F1000F49D1002F4FD1F307F5
:101E000000F1C08031462046FFF78AFFB4E08046EB
:101E1000B6E7684B18680028BDD0674B4FF47A7E50
:101E20001B68B5FBF3F54FF46162B5FBF0F300FB03
:101E30001355B3FBF2FA0EFB05F502FB1A323C21F7
:101E4000B5FBF0FCB2FBF1F300FB1C5501FB1322C8
:101E50000EFB05F50092B5FBF0F55849CDE901C53B
:101E600052462046FFF74AFF95E706F00805AFE720
:101E7000BBF1010F06D1B9F1000F64D1002F7BD067
:101E800000250CE0B9F1000FF8D04D485CE04D485A
:101E90004D494B46224611F04EF9002F68D0DFF82D
:101EA0002C91DFF82CA1102F31462046B84628BFD0
:101EB0004FF01008FFF734FF4FF0000B5D4545DC95
:101EC000059B51461A782046FFF718FF4FF0010B8B
:101ED0001BF0070F03D149462046FFF70FFFD845F7
:101EE0003BD9059B514613F80B202046FFF706FF10
:101EF0000BF1010BBBF1100FEAD1364920464FF030
:101F0000000BFFF7FBFE5A46059B9A5CA2F12001ED
:101F10005F2928BF2E2230492046FFF7EFFE0BF144
:101F2000010BBBF1100F1DD01BF0070F03D1494669
:101F30002046FFF7E3FED8455A46E5D849462046F5
:101F4000FFF7DCFEEBE71F48049DA1E7494620466A
:101F5000FFF7D4FE0BF1010BB0E720492046FFF755
:101F6000CDFEC5E7059BB7EB0807434405939AD11F
:101F7000049B002B7FF443AF204609B0BDE8F04F2F
:101F800011F0BABF064A05492046FFF7B7FE39E708
:101F9000D9CF0100DDCF010084C101009FDE010027
:101FA000D4CF010098C1010002D0010008D0010087
:101FB0000CD001000818002004180020E6CF010012
:101FC000493F0100133F0100C9460000B4E501008C
:101FD00011D0010017D0010019D00100B2E50100B5
:101FE0002DE9F0410F884B688E6886B005460C4697
:101FF0009046C7F382175BB1144A9B1A43F3CF0193
:10200000002920DB2078C0F3C200FFF78BFD0346D8
:102010002146608851F8102B0197C2F34A22002A0A
:1020200001EB0204C0F30B1008BF00210022CDE930
:102030000408CDE90214009231462846FFF77EFEDF
:1020400006B0BDE8F0810023E2E700BFC0BF010099
:1020500073B542F20F738B4228BF0B4605680F4AD7
:1020600004460521684610F03BFD63680C495B6837
:1020700006460B22284611F032FF63683246694655
:1020800028465B6811F02BFF636806495B681B22DA
:10209000284611F024FF02B070BD00BFC4DC01006F
:1020A00038D001001CD00100074A002101239042D2
:1020B00006D8064A01B901231360054B1860704722
:1020C00040085B000121F2E740420F0004180020A5
:1020D00008180020014B01221A707047C0330020FD
:1020E000014B00201960704720180020024B034864
:1020F00001221A7011F000BFC1330020C8C10100D5
:102100000148FFF7A5BF00BFC8C1010010B5064BCD
:1021100018680C46FFF73CFB21460346BDE810401B
:1021200002480F22184700BF20180020C8C1010034
:1021300010B9074B18707047064B1B781BB141F262
:10214000883015F06EBBA42000210CF0B7BB00BF97
:10215000C0330020C13300202DE9F843DFF874902C
:102160001D4F80460E46042499F8005095B90BF097
:1021700099FB2846324641460BF01AFB05460BF008
:102180009BFBE5B101233B7099F8003073B93046F1
:10219000BDE8F8833246414600200BF009FB0546B6
:1021A000EFE72046FFF7C4FF651E2C4600200BF02A
:1021B0006FFB0028EBD03B78002BF2D1E7E73B78B0
:1021C000002BE4D0013C2046FFF7B2FF3B78002B08
:1021D000CAD1DCE7C1330020C0330020014B00200E
:1021E0001960704738180020024B034801221A700A
:1021F00011F082BED3330020F4C101000148FFF783
:1022000027BF00BFF4C1010010B5064B18680C468B
:10221000FFF7BEFA21460346BDE8104002480F22F0
:10222000184700BF38180020F4C10100F8B5074F67
:102230000D4604464618B44201D12846F8BD14F8AC
:10224000011BBB6801485B689847F4E7D0BE0100FA
:10225000F0B40C4B0C4E5F6A0C4BB34203D36FF0DF
:102260008500F0BC70475D68BD4209D31C693CB174
:1022700095F802C00579AC4502D12346F0BC184759
:102280002433EAE73C180020000B0020DC0A002081
:102290002DE9F047134CDFF85080DFF850900546E9
:1022A0000E461746444503D36FF08500BDE8F0871E
:1022B0006268D9F824309A4212D3A36983B1907826
:1022C0002979884205D13A4631462846BDE8F0478B
:1022D00018475279012A03D13A4631462846984791
:1022E0002434DFE7DC0A0020000B00203C1800202B
:1022F0002DE9F0410B4CDFF8308005460E461746BD
:10230000444502D36FF0850009E063690BB92434BA
:10231000F6E73A463146284698470028F7D1BDE807
:10232000F08100BFDC0A0020000B0020024B0022DD
:102330001A605A60704700BFF718002070B50B4B49
:102340000B4CA34201D3002070BD196A1E7F0022EE
:102350000439D5B2AE4201D82433F2E7013211F884
:1023600032508542F5D10120EEE700BFDC0A0020A3
:10237000000B002008B509480378C3F341130A3362
:1023800050F823303BB100F1080200F110019847EA
:10239000C043C00F08BD1846FCE700BF3C18002032
:1023A0007FB5074B05930748022304AA4FF48251D7
:1023B000049311F0D8FD4FF0FF3007B05DF804FB37
:1023C0008ED00100C0C0010080B500AF88B06A4661
:1023D000064BC2E90530032342F8103F04484FF48E
:1023E000C25111F0C0FD0020BD4680BDB3D0010038
:1023F000C0C00100F8B500AF054612F04DFA10F16B
:10240000780F04461AD16C4688B06A46154B1648B8
:10241000C2E90535032342F8103F4FF4C45111F0CF
:10242000A2FDA546284611F0A1FD104AD2F8C430FD
:1024300023EA0003C2F8C430002410E00028F1D0E1
:102440006E4688B06A460A4B0748C2E90535032341
:1024500042F8103F4FF4C25111F085FDB5462046B9
:10246000BD46F8BDCED00100C0C001003C18002020
:10247000EFD0010004282DE9F74FDFF89C900446C7
:102480000F4615D001282FD1DFF8908098F8B93089
:1024900053B300F05BFF224D4D4522D22A6A4FF024
:1024A000000A2B7F5FFA8AF6B34204D82435F3E79B
:1024B000FFF73CFFE8E702EBC6060192307912F025
:1024C000EBF98346307911F051FDD8F8C430019A08
:1024D00023EA0003BBF1000FC8F8C4300AF1010A77
:1024E000DFDA002388F8B9300D4D4D4508D30B4B8A
:1024F0001B6A6BB13946204603B0BDE8F04F184760
:10250000EB681BB13A462146284698472435ECE74C
:1025100003B0BDE8F08F00BF000B00203C18002086
:10252000DC0A002073B5C4B263060D468DF807407F
:1025300007D02046FFF702FF78B10D4B93F8BA00A1
:1025400058B10B4E204655B103F080FCF3691BB126
:102550000DF1070108209847012002B070BD03F07B
:10256000AFFCF369002BF7D00DF107010920F2E76A
:102570003C180020F0B583B000AF04468078387076
:1025800023796279364D43EA02237B80E37803F0B6
:1025900003033B7111F0EAFCD5F8C430184206463B
:1025A0000CD0A478204600F0B3FE2046FFF722FFAF
:1025B00015F095F910B996200CF09AF9384603F009
:1025C00011FC10F1780F3B782DD16C4688B06A462B
:1025D00024492548C2E90513032342F8103F4FF46C
:1025E000C45111F0C0FCA546387803F0A5FC10F1E9
:1025F000780F2DD16C4688B03B786A461B491A4843
:10260000C2E90513032342F8103F4FF4C45111F0FF
:10261000AAFCA546D5F8C4300120334385F8B9009B
:10262000C5F8C43011E00028DED06C4688B06A4698
:102630000F490D48C2E90513032342F8103F4FF438
:10264000C25111F090FC0020A5460C37BD46F0BDEC
:102650000028DFD06C4688B03B786A460549E8E739
:102660003C18002011D10100C0C0010058D1010068
:1026700034D1010078D101002DE9F047A34EB369B0
:1026800004460F461546FBB9237803F01F03012BC0
:1026900000F09D80022B00F0048133BB94F9000010
:1026A0002A686178002834DA062912D008292BD04C
:1026B000D9B901231370517096F8C3305B0043F011
:1026C0000103137002232AE198470028DCD100207F
:1026D0000DE06288100A011F0129844605D90728E8
:1026E00003D8716AD2B20C781CB96FF01500BDE83E
:1026F000F0874E78664503D19A4200F00B81013392
:102700002144F0E70B780AE196F8BA301370012300
:1027100005E101390829E8D801A353F821F000BFE9
:10272000B9270000EB260000C7270000EB260000B9
:1027300045270000EB260000EB260000EB260000FA
:1027400051270000A07803F009FB0028BFD0CCE798
:102750006388756A63BBFFF7E9FD638886F8BA3062
:10276000F369002BB3D06A4903209847AFE76B7831
:10277000042B10D0052B11D0022B04D16F79638864
:10278000BB4208BF01202B781D442B78002BEED1D3
:102790000028AAD0DFE795F80380F4E76388BB42FE
:1027A000F1D1B8F1000FEED12846FFF7E3FEEAE7DA
:1027B000FF270020B846E8E76388012B95D1002366
:1027C00086F8C33083E76388012B8ED1F8E796F84B
:1027D000BA30D5F800C0002B87D0756AA38894F86A
:1027E00004E02A46107800283FF47FAF5178022990
:1027F00004D192F80480F04500F293800244F1E79E
:102800008CF800208CF80120396060E7154494E0D2
:102810000B2A7FF46AAF00274FF0FF08C146BA4683
:1028200006E06B78042B0FD0052B21D02B781D44AC
:102830002B78002BF5D1F36913B151460720984747
:10284000002F7FF444AF50E795F80280A38895F8F5
:1028500003909845EAD163889945E7D1B8F1070F0D
:102860001CD806EB0803AA4683F8BB900127DDE7D6
:10287000A3884345DAD1A3784B450AD0AF783846D0
:1028800000F046FD3846FFF7B5FDB0FA80F77F0946
:10289000CCE72846FFF76EFE0746C7E7AA460027A3
:1028A000C4E794F900206378002A18DA002B7FF43B
:1028B0001CAF24792D6863060AD02046FFF73EFD41
:1028C00000283FF412AF96F8BA30002B3FF40DAF5A
:1028D0002946204603F014FB00236B70F2E6012B1F
:1028E00008D0032B7FF401AF6388002B7FF4FDAE8B
:1028F000012103E0618800297FF4F7AEA088FFF78B
:1029000011FE00287FF4E3AEEFE600BF3C18002084
:10291000F6180020022829607FF4F4AE4B883B6053
:10292000D5E694F9000062780028BFF671AF002A5E
:102930003FF466AF0A2A7FF4D8AE2A78002A3FF423
:10294000D4AE697804297FF461AFA9788B427FF413
:102950005DAF072B96BF9B19002393F8BB308CF813
:102960000030D4E62DE9F04F83B000AF144E79600B
:1029700004469046994604254FF0030A79684B4671
:102980004246204603F002FB10F10B0F834612D1A2
:10299000C7F800D088B06A460A48C2E905644FF417
:1029A000C45142F810AF11F0DEFAD7F800D00BF0A6
:1029B00003FF013DE2D158460C37BD46BDE8F08F1C
:1029C00099D10100C0C0010013B5164C237DF3B9A5
:1029D000E268A168019201AB8020FFF7C3FF019A72
:1029E000A3681344A360E3689B1AE3606BB962B108
:1029F0002369E2889A4208DD94F8C82093FBF2F13B
:102A000002FB11330BB90123237502B010BD002363
:102A10001A4619468020237502B0BDE8104003F025
:102A2000B5BA00BF3C18002070B58AB000230D462F
:102A300001930646002867D100293FD108220B46A2
:102A40000DEB020111F041FF002804DA802003F0B1
:102A5000FDF90AB070BD314C029A2260039A62609F
:102A600004F13802A2609DF90820BDF80E302575EA
:102A7000002AC4E9035514DB802B0ED9284B2948C2
:102A8000099308AA02234FF48251089311F06BFABC
:102A9000802003F0DBF92846D9E713B1C4E90333FA
:102AA000D7E7FFF767FC0028D0D0E28823699A4275
:102AB000D4BFE260E360FFF787FFCAE7174CD4E9B1
:102AC0000212002A01AB05DC024611F0FEFE0028CE
:102AD000BFDABBE711F0F9FE002804DA802003F02A
:102AE000B5F93046B3E7019AA3681344A360E368DD
:102AF0009B1AE360002BACD104F13803A360FFF70D
:102B000039FC0028D7D1A1E78028A2D1034BDA688D
:102B1000002AD0D11B7D002BCDD19AE73C18002094
:102B2000C0D10100C0C00100054B064A9A62064AA6
:102B3000DA62064A1A63064A58629A6100207047B0
:102B40003C1800207926000051220000F1220000EC
:102B50009122000010B5094B93F8B84054B900F029
:102B6000FDF818B9BDE81040FFF71ABCFFF7DCFF0D
:102B7000204610BD6FF07700FBE700BF3C18002037
:102B80002DE9F0414A4D86B06F6A044649484FF03E
:102B9000FF324FF0FF330BF017F995F8B86096B19C
:102BA000454B05934548022304AA4FF484516FF026
:102BB0007704049311F0D7F93E480BF07FF92046D3
:102BC00006B0BDE8F0813E482C62E86103F052FB9C
:102BD00003F092F8041EEFDB00F0DCFB041EEBDBDD
:102BE0007B78012B01D1FB7963B9364B05933348D0
:102BF000022304AA4FF4825104936FF0150411F0DC
:102C0000B2F9D9E7684685F8C830ADF802308DF8DA
:102C100004608DF8006003F0E5F8041ECCDB80272B
:102C200068468DF8007003F0DDF8041EC4DB264909
:102C3000304603F00BFB041EBEDB2349384603F08D
:102C400005FB041EB8DB214CDFF8848044451AD311
:102C5000002003F071F9041EAEDBD5F8C4308020EB
:102C600043F00103C5F8C43003F066F9041EA3DB8A
:102C7000D5F8C43043F48033C5F8C430012385F857
:102C8000B830002498E7276A0026227FF3B29A42E0
:102C900001D82434DAE707EBC30257F83310107970
:102CA00003F0D4FA01360028EFD04FF0FF3483E769
:102CB0003C180020D4090020D9D10100C0C0010077
:102CC00075240000FCD10100292A0000DC0A002044
:102CD000000B002030B51F4B8BB005AA03F1100587
:102CE00018685968144603C40833AB422246F7D12A
:102CF0001B7823701022002101A819F031F812224C
:102D00000021154819F02CF8102101A811F0D7FE68
:102D100000281BDD0828B8BF0820093801AB0E4980
:102D20001A18002012F8013F0AAC04EB131403F048
:102D30000F0328336B44013014F8144C13F8143C7F
:102D40000C7008284B7001F10201EBD102480BB066
:102D500030BD00BF36D20100D43300202DE9F04F42
:102D60008F4C8BB04FF0000B00AF00264FF0011AD4
:102D7000B1463546B046237843B98A4B02349C426B
:102D8000F3D187482C37BD46BDE8F08F6378052B1B
:102D90001DD8DFE813F0BA0006000201BA001F00D8
:102DA0005700402387F810B07B8287F814B007F1F2
:102DB000100002F0E5FF40B108237B8207F110000C
:102DC00002F0DEFF08B1A7F812B07B8AE371237826
:102DD0001C44D0E7E378002BF9D1A3784BB309F179
:102DE00001095FFA89F9F2E76B689C4223D0243528
:102DF0006D4B9D42F8D36D4688B06A466B4BC2E975
:102E00000534032342F8103F694800234FF4C251B0
:102E1000FEF7AAFEAD46674B7B6202233B62644825
:102E2000002307F120024FF48251FEF79DFE00209F
:102E3000A8E7614DDCE7AB68002BD0D049462046BF
:102E40009847CCE7002D5ED15C4B7B6202233B624E
:102E50005748002307F120024FF48251FEF784FE09
:102E6000D9E72B6AA27803EBC103FB601B799A4276
:102E700005D001312B7F9942F3D3514BE5E7012374
:102E8000E07800F003003875207994F805C040EA36
:102E90000C20788294F902000028DAB228DA03F1D3
:102EA00010004FF0010C0CFA00F010EA0A0F26D1C6
:102EB00042F08000387407F11000C7E90032B960B1
:102EC00002F05EFFD7E901213B68C0B9397CF868A0
:102ED000A17011F0800F18BF1032017118BFD2B26B
:102EE0004FF0010114BF914099404AEA010A6EE790
:102EF0000120984010EA0A0F01D11046DAE70133A9
:102F0000102BBDD1B5E70021B4E7032E2CD1FFF77C
:102F1000E1FEF86088B1FDF765FA70B11028FB6832
:102F200017D0284B7B6202233B622148002307F124
:102F300020024FF48251FEF717FE23786FF0020152
:102F4000E218091B04EB5303D14214D50136F6B243
:102F50003DE7184600F11002A31C50F8041B43F88B
:102F6000041B9042F9D1E8E7002EE6D1B8F1000F3A
:102F700008D1154B69E702F801BC13F8010902F802
:102F8000020DE1E7A4EB080388F80230C3F307233E
:102F900088F8033088F80490D8E7A04617E700BF08
:102FA000180A0020DB0A0020000B002047D2010095
:102FB000B8C001002DD30100DC0A002067D2010057
:102FC000A8D20100C5D2010010D3010010B5094BF1
:102FD00000211A461C78844205D15C681CB1482344
:102FE00003FB012010BD0131042903F14803F1D195
:102FF0000020F7E7081900202DE9F04383B050F8CE
:10300000303C10F8345C103300AF044611D1036932
:1030100050F8282C13F002064BD0F2B913F0040339
:1030200004D11A4619462846FFF79CFC002344F8B1
:10303000303C54F8303C10330BD054E9098654F836
:103040001C9C14F04CFC00286FD03E48214614F024
:1030500049FD0C37BD46BDE8F08350F82C1C3B1DE4
:103060002846FFF77FFC98B16E4688B06A46364B1B
:10307000D561C2E90530042342F8103F33480023EC
:103080004FF40151FEF770FDB5466FF01503CEE722
:103090007A6854F82C3C134444F82C3C54F8283CEF
:1030A0009B1A44F8283C54F8243C134444F8243C2C
:1030B000BFE750F82C1C3B1D284603F009F888B1E7
:1030C000E84688B06A46204BD561C2E90530042342
:1030D00042F8103F1D4833464FF40151FEF744FDBE
:1030E000C546D2E77E6854F82C3C334444F82C3C67
:1030F00054F8283C9B1B44F8283C54F8243C3344A7
:1031000044F8243C002E91D0284603F0B9F8B6FBD1
:10311000F0F303FB1066002E88D154F8283C002BF6
:1031200084D0284603F03AF883E744F8200CA4F151
:1031300018000AF033FF002E8BD04A46414628463D
:10314000B04786E7001000205BD30100D0C001002B
:1031500070B54B1E012B88B006460D4618D8FFF7F8
:1031600035FF0446B0B9012D12D101AB012202A9ED
:10317000304602F0ADFF019B002BF6D10F4A0792BB
:10318000022206920E4806AA4FF48251FEF7ECFC8A
:1031900008B070BD14F0A3FB04F1340108B1012D97
:1031A00005D1084608B0BDE87040FFF725BF0548C7
:1031B00008B0BDE8704014F095BC00BF78D30100A2
:1031C000D0C00100001000202DE9F04F8BB000AFFF
:1031D0000546B9601646FB6010F006FF002840F077
:1031E00088804FF02003EFF3118283F31288BFF33E
:1031F0006F8FDFF804917A608346002300224846EF
:103200000AF0F2FE0346F0B9DFF8F0A0482000FB18
:103210000BF00AEB0008D8F8044014F1100F31D17C
:103220006E4688B06A463649C2E90515032142F860
:10323000101F34484FF4C251FEF796FCB54648467D
:103240000AF0ACFE14E00BF1010BBBF1040F09F125
:103250004809D2D12C4B7B6202233B6229480023D0
:1032600007F120024FF482516FF00B04FEF77CFC53
:103270007B6883F31188BFF36F8F20462C37BD46E0
:10328000BDE8F08FC8F810303B6DC8F81430FB680B
:10329000BA68C8F844307B6D0AF80050C8F8183096
:1032A00028466FF00F03C8E90226C8F8043002F080
:1032B000E7FF68B1284602F0E3FFB6FBF0F303FB3B
:1032C00010662EB1D8F8443043F00403C8F84430F7
:1032D000FB689B0708D5482303FB0BA10B4834313F
:1032E00014F000FC0024C3E7284602F057FF044610
:1032F000BEE76FF00F04C0E7241900200819002072
:10330000ADD30100D0C0010092D301000010002015
:1033100010B54FF02003EFF3118483F31288BFF34D
:103320006F8FFFF753FE50B14368103307D16FF032
:103330008B03436000F13401034814F0D3FB84F3A2
:103340001188BFF36F8F10BD0010002070B50F4CB7
:1033500004254FF02003EFF3118683F31288BFF3A7
:103360006F8F6368103307D16FF08B030848636079
:1033700004F1340114F0B6FB86F31188BFF36F8FAC
:10338000013D04F14804E4D170BD00BF08190020DC
:103390000010002070B50A4C0A4E00253146204628
:1033A00014F083FB0122A4F118001146013514F03A
:1033B0003BFB042D04F14804F0D1002070BD00BF98
:1033C0003C190020F92F000008B50146034810F011
:1033D000F5FD10B1012300F8073C08BD281A0020B4
:1033E0000169012381F84B300B6833B191F8493002
:1033F0001BB10248083114F075BB70470010002063
:103400000169012381F84A300B6833B191F84830E3
:103410001BB10248083114F065BB70470010002052
:1034200038B5056995F89E0088B195F89F307BB94D
:1034300085F84830D5F8900010F025FA00220446AF
:103440000023044805F118010AF04CFF204638BD5E
:103450000020FCE70010002013B504698DF8071068
:1034600094F89E30A3B194F89F308BB90DF1070109
:10347000D4F8900084F84830012210F004FA014694
:1034800040B10D482122002304F118010AF02AFF5F
:1034900002B010BDD4F89000012210F048FA0028C4
:1034A000F6D0D4F8900001220DF1070110F0EBF9ED
:1034B0000028E6D1ECE700BF00100020F0B5D0F8FE
:1034C0008C305B681B6A1F7D85B00546384610F05E
:1034D0008BFD0646E0B9A86F4FF4806203A910F097
:1034E000F1F90446A0B18306A5F1180308BF00F165
:1034F000FF3485F830600193064B03990093224610
:1035000002233846FFF760FEA86F214610F0FAF953
:1035100005B0F0BDB935000070B504460E4601791E
:103520001548154610F03CFD10B394F9002063785F
:10353000002A16DB202B04D0222B0ED06FF0850042
:103540000AE02B681A6840F8102C9A8820F80C2C96
:103550009B7900F80A3C002070BD638800F8093CA4
:10356000F9E7212BEAD11038072328603360F2E70E
:103570006FF01200F0E700BF281A00200D4A034642
:103580000021A0F848101068C3F894009088927940
:10359000A3F8980083F89A2083F89C1083F89B1076
:1035A000A3F89E1083F8A010402203F14C0018F0FD
:1035B000D7BB00BF10C1010010B5012382F848300D
:1035C000136814463BB192F84A3023B10A4802F11D
:1035D000080114F087FAD4F890309A681B699A426F
:1035E00008D004F118010448BDE81040002200236F
:1035F0000AF078BE10BD00BF0010002010B50469AD
:103600000023C4F8A8300C4BC4F8A400596804F196
:10361000A80269B9C3E9002204F10800074914F0BF
:1036200044FA04F11800064914F06DFA002010BDA8
:103630000A605A60F0E700BF281A0020134001001A
:10364000BD34000030B54FF40033426805690D4CBD
:1036500085B042F2A100CDE90103002385F89D3039
:10366000106AADF80C1000790A2201A9FFF77AF967
:1036700095F89D3023B9012014F0D3F8013CF7D11F
:1036800005B030BDA186010073B5144602F14C06A9
:103690000A1E05461FDDD4F88C00314610F0F3F801
:1036A000012384F8493023683BB194F84B3023B1AF
:1036B0000E4804F1080114F015FAD4F88C104B6888
:1036C0004A699A1ACB699B1A3F2B04D8012384F8C4
:1036D000A03002B070BD064B00930194012340223C
:1036E00031462846FFF770FDF3E700BF00100020C9
:1036F0008936000038B50D4601461E4810F044FCDE
:10370000044680B30246691E52F8A4395B68052955
:1037100029D8DFE801F020280320252914F8061C09
:1037200031B91B6A187BFFF7AFFF012304F8063C91
:1037300014F85C3CBBB9012304F85C3C54F8A43C8D
:103740008BB114F85A3C73B1A4F19C010A48BDE84E
:10375000384014F0C7B9BDE838401046FFF70EBF37
:10376000012304F8053C38BD14F8053C002BFAD0C1
:103770000023F6E7281A00200010002037B5094D75
:103780000949002400944FF0FF334FF4806228462B
:103790000AF070FD0549284614F0A7F8204603B04A
:1037A00030BD00BF00100020103F0020FDD30100FD
:1037B0002DE9F0410646FCF715FE05464FF0FF33B4
:1037C00012484FF0FF320AF0FFFA114B1C68D3F891
:1037D00004809C4208BF00242CB90C480AF06EFB00
:1037E0002046BDE8F081A7683846FCF7FBFDA842FB
:1037F00006D12A463946304618F052FA0028ECD055
:10380000444501D02468E7E70024E6E7700900207A
:103810002C01002010B5044686B015484FF0FF3249
:103820004FF0FF330AF0D0FA0CB1A06890B9114BF9
:103830000593022304931048002304AA4FF48251F5
:103840006FF01504FEF790F909480AF037FB20469F
:1038500006B010BDFFF7ACFF08B1084BE8E7084B16
:103860005A68C4E9003214605C600446ECE700BFAB
:103870007009002006D4010020C001001FD40100FF
:103880002C01002001480EF059BF00BF58C20100B2
:1038900038B5044618B90F4B0F485B689847616804
:1038A000B1F5683F10D0B1F5680F0DD00B4DA942AE
:1038B0000AD011F46861206807D00146084813F067
:1038C000E8FF00232360656038BD142218F048FA31
:1038D000F9E700BF8406002048D401002C5F5CA9F2
:1038E000301F002008B520B34368B3F5683F10D1FE
:1038F00001220368BFF35B8F53E8001F002903D147
:1039000043E800200028F7D1BFF35B8F0DD10020E2
:1039100008BD094A93420AD000684FF0FF324FF0C9
:10392000FF330AF051FA0028F1D00448F0E70448C8
:10393000EEE76FF4E040EBE72C5F5CA9E98FFFFF57
:10394000EA8FFFFF08B5D8B14368B3F5683F10D1DF
:1039500000220368BFF35B8F53E8001F012903D1E6
:1039600043E800200028F7D1BFF35B8F0BD1002084
:1039700008BD074A934208D000680AF09FFAF6E7AC
:103980006FF4E040F4E70348F2E70348F0E700BFD4
:103990002C5F5CA9E98FFFFFEA8FFFFF10B504469B
:1039A00018B91D4B1D485B6898476368B3F5683FBD
:1039B0002FD0B3F5680F2CD0194A934219D1236840
:1039C00003BB18484FF0FF324FF0FF3321460AF097
:1039D00007F908B923681BB90F4B13485B68984770
:1039E00020681422002118F0BBF94FF4686363606B
:1039F00008E0B3F5683F0DD83A2B03D040F6BA6221
:103A00009342DED1206813F08BFF636843F03A03E2
:103A1000636010BD054AF3E78406002048D4010026
:103A20002C5F5CA9301F00206ED401003A00003AE0
:103A300008B5064906484023142213F01CFFBDE8D0
:103A40000840044904480EF0EBBE00BF301A0020C5
:103A5000301F002060C2010074C20100034B43F814
:103A6000302003EBC0035960704700BFE806002018
:103A7000014910220A60704710ED00E072B6404024
:103A800080F31188BFF36F8FBFF34F8F30BF62B6E3
:103A9000BFF36F8F704700BF72B6494081F3118842
:103AA000BFF34F8F20BF80F3118862B6704700BF0D
:103AB0002DE9F047814600AF0C4600294CD06E46F8
:103AC0008AB0D1E90012A3686D462748A8464FF096
:103AD000050AC5E90501C5E9072348F810AF2348E1
:103AE000424600234FF42151FEF73EF8B546D4E993
:103AF00003126369AD461E48C5F810A0C5E905016B
:103B0000C5E907231948002342464FF42151FEF727
:103B10002BF8B54688B0E3696D46164AA8464FF0C3
:103B2000030AC5E9052348F810AF104800234246B0
:103B30004FF4C251FEF718F8B546A369AD460E4AD8
:103B4000C5F810A0C5E905230848002342464FF4F4
:103B5000C251FEF709F8B5462146484609F0B2FEC3
:103B6000BD46BDE8F08700BF9BD4010070C00100D6
:103B7000CAD40100F9D4010008D501000028ACBF67
:103B800000F16040064B4FEA4111ACBF00F56140C7
:103B900000F00F00C9B2B4BF195480F80013704789
:103BA00014ED00E040B2002807DB044A410901237C
:103BB00000F01F00834042F82130704700E100E030
:103BC00040B200280CDB4309064900F01F002033F7
:103BD0000122824041F82320BFF34F8FBFF36F8F44
:103BE000704700BF00E100E0054B420900F01F00F4
:103BF00053F82220012303FA00F01040704700BF61
:103C000000E100E030BFFFF7FDBF00BF0B4A08B581
:103C10000B4B22F07F029A60BFF34F8FBFF36F8F81
:103C2000D3F8882022F47002C3F8882009F008FF36
:103C30000AF0F0FE00F0D0FB09F050FF0000000099
:103C400000ED00E0094A0A4993680968D967094903
:103C500098674B6843F080534B60002383F31188CF
:103C6000BFF36F8F9368D86F704700BFD02C0020D0
:103C7000B4C6010000ED00E012498A684FF0300040
:103C80001044EFF3098C80E8F01F202080F31288A5
:103C9000BFF36F8F0C4F4FF000664A698A603E6039
:103CA0004FF0740414192068084C2060906F0023B2
:103CB000936780F3118802F1300090E8F01F8CF3D5
:103CC00009887047D02C002004ED00E04C1F002034
:103CD0001EF0040F0CBFEFF30880EFF30980816939
:103CE00011F8021C0229FFD001B510F0FAFA01BD4B
:103CF00042F8203C009B42F81C3C0A49019B42F8D8
:103D0000183C029B42F8143C21F001014FF08073F3
:103D100042F8043C42F8081C0023203A02658367FD
:103D2000704700BFB1130000084B9860084B406F0C
:103D30001860104681F30988002163B681F3118869
:103D4000BFF36F8F00220023FDF732FBD02C002041
:103D50004C1F002001B5EFF30580A0F110004FEAE1
:103D6000C0000449014409C99847BDE8014002491F
:103D700008470000E8060020D93D0000114B124A18
:103D80002DE9F041D518DFF84480013DB5FBF3F58E
:103D90005D430F4B08EB0304013CB4FBF3F403FB5E
:103DA00004540E1B07460B49304617F0B1FF70193B
:103DB00042460021083E17F0D3FF7E6704F1080059
:103DC000BDE8F081080000000800000008000000C5
:103DD00004000000F8C00100044B9968586988424B
:103DE00003D003494FF080520A607047D02C002066
:103DF00004ED00E02DE9F04186B0064600AF0D4627
:103E0000444B7B61022444483C6107F110024FF4AB
:103E1000825110F086FA414B9B6ADB0678D5404B05
:103E20003D48C7E9044307F110024FF4825110F0F6
:103E300078FA1120394B9B6A1C070BD5394B7B61F3
:103E4000022335483B6107F110024FF4825110F014
:103E500068FA1220314CA36A990723D5E846324B01
:103E60007B6102233B6107F110022B484FF4825122
:103E700010F057FA636BA26A120612D588B06A4630
:103E80002A492548C2E90513032342F8103F4FF49D
:103E9000C25110F046FAC5461EB1A36A23F0800352
:103EA000A36213201D4B9B6ADE070BD5204B7B6161
:103EB000022319483B6107F110024FF4825110F0C0
:103EC00030FA1420154B9B6A9C060BD5194B7B616D
:103ED000022311483B6107F110024FF4825110F0A8
:103EE00020FA15200D4B9A6AD10658BF9A6A9A6A31
:103EF000920642BF5A6A22F400525A629A6A42F00B
:103F0000FF029A62183700232B70BD46BDE8F0818E
:103F100010208FE736D5010070C0010000ED00E0F1
:103F20004CD501007FD5010092D50100AAD5010032
:103F3000C0D50100DFD501002DE9F04186B006466D
:103F400000AF0D46474B7B6102244FF48251464837
:103F50003C6107F1100210F0E4F9444B9B6AD9046C
:103F60006DD5434B4048C7E9044307F110024FF4B5
:103F7000825110F0D6F917203C4B9B6A1A050BD5DD
:103F80003C4B7B61022338483B6107F110024FF440
:103F9000825110F0C6F91820344CA36A9B0523D532
:103FA000E846354B7B6102232F483B6107F1100245
:103FB0004FF4825110F0B5F9A36BA26A100412D528
:103FC00088B06A462D492848C2E90513032342F800
:103FD000103F4FF4C25110F0A4F9C5461EB1A36AB8
:103FE00023F40043A3621920204B9B6A59050BD58B
:103FF000234B7B6102231C483B6107F110024FF405
:10400000825110F08EF91A20184B9A6AD20518D5F1
:104010001C4B7B61022314483B6107F110024FF4F3
:10402000825110F07EF91B20104A936A43F47F43BB
:104030009362183700232B70BD46BDE8F08116202F
:104040009AE79B6A9B04EFD50F4B7B6102230648DE
:104050003B6107F110024FF4825110F062F91C200D
:10406000E2E700BF0ED6010070C0010000ED00E0E5
:1040700024D601007FD5010035D601004ED60100BF
:1040800063D601007ED60100DFD5010010B586B0F1
:10409000364B3748059304AA02244FF48251049406
:1040A00010F03FF9334B9B6A9A015DD5324B304893
:1040B00004AA4FF48251CDE9044310F032F91E20D6
:1040C0002C4B9B6ADB010AD52C4B2948059304AA8B
:1040D00002234FF48251049310F023F91F20254B43
:1040E0009B6A1C030AD5264B2148059304AA022388
:1040F0004FF48251049310F014F921201D4B9B6A58
:1041000059030AD51F4B1A48059304AA02234FF4FA
:104110008251049310F005F92220164B9B6A9A03F2
:104120000AD5194B1248059304AA02234FF4825171
:10413000049310F0F6F823200E4B9B6ADB030AD59C
:10414000124B0B48059304AA02234FF482510493A7
:1041500010F0E7F82420074A936A6FEA03436FEAF6
:104160001343936206B010BD1D20A9E796D6010047
:1041700070C0010000ED00E0AED60100C1D6010024
:10418000DBD60100F9D601001ED7010038D70100A7
:104190002DE9F0437A4B8BB0D3F8048000AF04468E
:1041A000C8F30805002686F31188BFF36F8F02F06D
:1041B0007F43B3F17F4F0ED102F00C03082B19D1CE
:1041C000704BFB6102237048BB6107F118024FF48A
:1041D000825110F0A6F8002634460023FB71EB1E36
:1041E000092B00F2AC80DFE803F00A9FA29BAAAA89
:1041F000AAAAAAA510074CBF0C460126EDE7E9467E
:10420000624BFB614FF0020807F118025E48C7F8E5
:1042100018804FF4825110F084F80023584DFB7140
:10422000EB6A9A070BD55A4BC7E90683564807F144
:1042300018024FF4825110F074F8002341E0EB6A49
:10424000002B01DA534BEFE7EB6A5B00F5D5524BDD
:104250004D48C7E9068307F118024FF4825110F068
:1042600060F86B69A26943F480736B61BFF34F8F91
:10427000BFF36F8F6B6932F8022C23F480736B618C
:10428000BFF34F8FBFF36F8F4DF602739A4208D082
:10429000AB6ADBB2002B36D0F91D0120FFF7AAFD77
:1042A00040E088B023686A463C493748C2E90513B4
:1042B000032342F8103F4FF4C25110F032F8236844
:1042C000CD46FA79DAB907F1080504F1200C206827
:1042D00061682A4603C2083464451546F7D17A6AF4
:1042E000002E47D0C2F3080121B96FEA52226FEACB
:1042F00042227A6207F108011846FFF7D9FB2C37F2
:10430000BD46BDE8F083AB6A13F47F4F04D0F91DBE
:104310000120FFF711FE05E0AB6AB3F5803F8CD3B7
:10432000FFF7B4FE0346CCE7F91D0020B6E7F91D00
:104330000020EEE71A4BFB610223BB6176E7194AC6
:10434000194B18F4F87FE8468AB018BF13466A463E
:1043500016490D48C2E905134FF400731384103D4C
:10436000134BD5614FF4115142F8103F0FF0D9FFB4
:10437000C54662E722F4FF7222F00102B9E700BFEE
:1043800000ED00E091D7010070C00100BCD7010032
:10439000D3D70100F4D7010002D8010021D80100D1
:1043A0003DD8010078D7010063D7010061D8010032
:1043B00004000001024A536943F01003536170473F
:1043C00000ED00E0EFF30880EFF3098101B57246DC
:1043D000FFF7DEFE01BD00BF044800232021C21804
:1043E0000133302B82F80013F9D1704700E100E06F
:1043F000002080F31488BFF36F8FFDF719F90020B8
:104400000D490860BFF34F8F0C4880F3088800F017
:104410003DF8202080F3118809484FF400614018CE
:1044200080F30988EFF314800221084380F3148895
:10443000BFF36F8FFFF7EAFB94ED00E050540020CC
:1044400010470020BFF34F8F0549064BCA6802F49E
:10445000E0621343CB60BFF34F8F00BFFDE700BFA7
:1044600000ED00E00400FA050749D1F89020002390
:10447000C2F307221846934200DB7047C1F8983018
:10448000C1F8A0000133F6E700ED00E008B572B610
:10449000002383F31388FFF7E7FF144B4FF0FF323D
:1044A000C3F88020C3F88420C3F88820C3F88C2088
:1044B000C3F89020C3F89420C3F89820C3F89C2038
:1044C000C3F88021C3F88421C3F88821C3F88C2164
:1044D000C3F89021C3F89421C3F89821C3F89C2114
:1044E00062B6BFF34F8FBFF36F8F08BD00E100E0EE
:1044F000084B9B6883420BD1EFF3058343B1064B16
:104500005A6842F080525A605A6A22F400425A6253
:104510000AF00EBAD02C002000ED00E0024B034A56
:104520000348012100F082B80000042000000020B0
:1045300084C201002DE9F041DFF8B4E09C4600AFF1
:10454000154600238B421ADA4468002C4DD0BCF18A
:10455000000F1DD0661E344215D06C4688B06A46E6
:104560002449C2E90513032342F8103F22480023DF
:104570004FF4C251FDF7F8FA6FF01505A54628462D
:10458000BD46BDE8F0811F2CE7D902681642E4D190
:10459000202C026886685FFA85F814D9B4F1004FC0
:1045A00013D8013CB4FA84F4C4F11F046400B8F1D8
:1045B000070F46EA04060AD96C4688B06A460F4BD4
:1045C000C2E90535CFE70824F1E73E24EFE722F002
:1045D0001F022A4342F0100246F00106CEF898501E
:1045E000CEF89C200135CEF8A06001330C30A9E74D
:1045F00000ED00E078D8010068C001009BD8010000
:10460000044B0522C3F89420BFF34F8FBFF36F8F85
:10461000704700BF00ED00E0BFF35F8F024B002248
:10462000C3F89420704700BF00ED00E010B5034CC4
:1046300001232278FFF77EFF207010BDE6330020B3
:1046400014490868082810B521D8FFF7E5FF124C77
:1046500049680022904201F10C0105D10F4B1870FE
:10466000FFF7CEFF002010BDC4F8982051F80C3C95
:1046700023F01F03134343F01003C4F89C3051F898
:10468000043C43F00103C4F8A0300132E2E74FF0EC
:10469000FF30E8E790C2010000ED00E0E6330020C3
:1046A00008B5024B1B689847002008BD501F00202A
:1046B000034B044A1860937843F0020393707047E9
:1046C000501F002054010020F0B587B007460E4669
:1046D00014460021102268461D4617F041FB0223B4
:1046E0008DF802302A46054B019321466846CDE9F4
:1046F00004760EF021FA07B0F0BD00BF2943010097
:1047000008B504480EF06FFD404080F311884FF06B
:10471000020002DFC1D8010008B50649064821F0B1
:104720000701C1F1005202F580220EF0F7FE0020D1
:1047300008BD00BF6365002050580020014809F003
:10474000BDBB00BF6401002038B505464FF0FF3205
:104750004FF0FF33094809F037FB09482A46082182
:104760000EF074FE044628B925B117F009FB054B7D
:104770000C221A50FFF7E2FF204638BD64010020EA
:104780005058002014000000044A0123C2F84035AC
:104790004FF080420020C2F87835704700E00140B9
:1047A00020B1034B800143F001031847704700BF5D
:1047B00020C10100084B5968024611B119688842AE
:1047C00007D0D86830B1996804488A4218BF0020E1
:1047D00070471846704700BF541F00205C1F002020
:1047E00008B5044813F09CF8034BC3E900330020DC
:1047F00008BD00BF641F0020781F002002460B4642
:10480000014809F0E1BA00BF641F0020014809F027
:1048100055BB00BF641F002038B504460D464FF05D
:10482000FF304FF0FF31FFF7E9FF2046FFF7C2FFEF
:1048300008B143687BB90B4B5A6812B1DA686AB9A0
:10484000012243F8324003EBC20300245D60FFF70E
:10485000DDFF204638BD6FF07704F8E76FF01B04EA
:10486000F5E700BF541F00201328DABF024B18568B
:104870006FF00400704700BFF5D801000149002027
:10488000FFF7CABFB0C2010030B5C1680122ADF563
:10489000057D04461144006905F090F90D2819D1F1
:1048A00094F820309A0722D4DB071AD4124B0FCB8E
:1048B0006D4685E80F00E0684FF4007304AA2946AE
:1048C000013005F0A3F960B9E168206901221144C3
:1048D00005F074F928B994F8203043F0080384F8FF
:1048E00020300DF5057DBDE83040FFF7BDBF6FF00E
:1048F0001D000DF5057D30BD00C1010038B5044631
:10490000006812F00AF921680546044812F0C1FF58
:104910002846BDE83840FFF7A7BF00BF08090020C0
:1049200038B50446006811F0BBFF2168054605480C
:1049300012F0AFFF002323602846BDE83840FFF7A0
:1049400093BF00BF2409002073B5002206460D4620
:104950001048002301A909F043F90446B0B9019BAE
:1049600001465022184617F0FBF9691C306012F01E
:1049700090F8054620B10199064812F08AFF34608C
:10498000284602B0BDE87040FFF76EBF6FF00B0025
:1049900002B070BD08090020F7B5002306460D4699
:1049A0001248174601A9002209F01AF90446C0B9B5
:1049B000019B01465022184617F0D2F9691C30605D
:1049C00007F0130211F019FC054620B101990748C0
:1049D00012F05FFF3460284603B0BDE8F040FFF7F7
:1049E00043BF6FF00B0003B0F0BD00BF24090020EF
:1049F0002DE9F0431E4B061D01274FF00008C0E9CA
:104A00000183477387B00446314600680FF0A6FD66
:104A10004FF00209054668B1164BCDE904931648DC
:104A2000434604AA4FF48251FDF79EF8284607B08A
:104A3000BDE8F083206B0FF0B4FD206884F8099086
:104A400031460FF08BFD05460028E5D1A4F86E0035
:104A50002774206B0FF0A5FD084B2068636031467A
:104A60000FF07CFD05460028E0D0054BD5E700BFE0
:104A70000201010109D9010078C00100801A060075
:104A80002FD9010030B505468BB001200FF089FD0C
:104A900028680FF074FD044668B1344B0593022377
:104AA00004933348002304AA4FF48251FDF75CF8C5
:104AB00020460BB030BD0B240021182202A817F0AD
:104AC0004FF908204FF4D573CDE9000379230693FD
:104AD0002868C823694608930FF049FD48BB95F83C
:104AE0004C20B2B1039BD9B2AA2922D103F470633E
:104AF000B3F5807F0FD01F4B0593022304931C480E
:104B0000002304AA4FF48251FDF72EF86FF08504BC
:104B1000CEE7029BE7E7B5F86E3043F00803A5F84F
:104B20006E307AB9284600F09DFA04460028BFD0BE
:104B3000ECE7013CC0D128680FF021FD04460028B5
:104B4000B6D1EFE71822002102A82C6817F008F967
:104B50003B220123CDE90023102306936946C82395
:104B6000204608930FF003FDE8E700BF49D9010094
:104B700078C001005CD9010070B50D4686B00028F0
:104B800065D041F8280B83689B6983B19847044638
:104B900080B1304B0593022304932F48002304AACD
:104BA0004FF48251FCF7E0FF204606B070BD6FF075
:104BB0005704EEE705F11406304612F0B1FE044644
:104BC0000028F1D14FF440420023304609F0FCF8B0
:104BD000044608B1214BDDE72846FFF709FF0446EC
:104BE00018B130460FF0C1FCDEE72846FFF74AFF58
:104BF000032804461AD1012385F86C302846FFF7B4
:104C0000F7FE044658B1164B05930223049312484D
:104C1000002304AA4FF48251FCF7A6FFE1E72846DF
:104C2000FFF730FF044648B10E4BEDE730B1304698
:104C30000FF09BFC012385F86C30B5E7022330466A
:104C400085F86C3006B0BDE870400FF08EBC6FF098
:104C50001204A9E770D9010078C001009FD90100B2
:104C6000CAD90100E3D9010070B50D4D0446206892
:104C70000FF0BEFC38B17D207D3D12F0D2FD002D3D
:104C8000F5DC01200BE00C266FF07300013E04D030
:104C900020460FF0E5FC0128F8D00028E7D170BDD0
:104CA00080969800B0B58AB000AF05460C46182231
:104CB000002107F10C0017F053F837237B60112314
:104CC0002404FB612868BC60C8230022391D7B6274
:104CD0000FF087FC28BBFB69012B17D1F968124B39
:104CE0000B409BB16C4688B06A46104B1048C2E935
:104CF0000531032342F8103F4FF4C4510FF0ABFCD1
:104D00006FF00400A5462837BD46B0BD95F84C307D
:104D1000002BF8D1FB6813F0200F08BF6FF085005F
:104D2000F1E70120EFE700BF0880F9FD0DDA01008F
:104D300078C001002DE9F04796B014461E461A448B
:104D4000436E9A4200AF05468A4600F2908090F882
:104D50006D30012B11D1474B7B64022346483B64E5
:104D600007F140024FF484516FF085040FF073FC9B
:104D700020465837BD46BDE8F08700F114080022F0
:104D80000023404609F020F8814668B13B4B7B6424
:104D9000022339483B6407F140024FF484510FF07D
:104DA0005AFC6FF00F04E3E70146102207F13800C8
:104DB00016F0D6FF012EB5F86E20C7F824900CBF70
:104DC000112312233B63B5F868303E62900754BF4D
:104DD00003FB04F222467A631122BA644FF00309FE
:104DE000C822C7E90643C7E9139242F21073286844
:104DF000C7F828A007F1180207F13001FB620FF095
:104E0000F0FB0446E0B16D4688B06A461C4B4FF497
:104E1000C251C2E9053042F8109F17480FF01BFC41
:104E2000AD46184B7B64022313483B6407F14002F4
:104E30004FF482510FF00FFC40460FF00FFC97E744
:104E40002846FFF711FF04460028F5D00E4B0A480C
:104E50007B6107F1100202234FF482513B610FF096
:104E6000FAFB40460FF0FAFB6FF07304D9E76FF0DE
:104E700015047DE73CDA010078C001005FDA01002B
:104E80007BDA0100BBDA010098DA01002DE9F04F6E
:104E9000A1B014461E461A44436E9A4200AF05461E
:104EA0008B4600F2CD8090F86D30012B11D1664B0E
:104EB000FB6602236548BB6607F168024FF4845124
:104EC0006FF085040FF0C7FB20468437BD46BDE870
:104ED000F08F00F1140800220023404608F074FF10
:104EE000814668B15A4BFB6602235848BB6607F1FE
:104EF00068024FF484510FF0AEFB6FF00F04E3E74C
:104F00000146102207F13C0016F02AFF012EB5F8E9
:104F10006E20C7F810900CBF182319237B63B5F8D7
:104F20006830C7F814B0910754BF03FB04F222465F
:104F3000BA634FF0C8090322C7E914294FF0110AD8
:104F400042F2107B2868C7F84CA03A1D07F13401E3
:104F5000C7E90143FE60C7F818B00FF042FB002814
:104F60005AD02846FFF780FE0446002845D1014666
:104F7000242207F1580016F0F3FE2146182207F10B
:104F80001C0016F0EDFEB5F862102846FFF78AFE09
:104F9000044690BB1623C7E9163004220123C7E953
:104FA00008232868C7F870A005F17003C7F8789047
:104FB00007F11C0207F15801C7E90B3B0FF011FB89
:104FC0000446D0B93B6F012B03D1224C3B6E1C40F1
:104FD0009CB92B6F6C4688B01BBA6A461E49D661D5
:104FE000C2E90513042342F8103F18484FF4015159
:104FF0000FF031FBA5466FF00404184BFB6602234B
:105000001248BB6607F168024FF482510FF023FB90
:1050100040460FF023FB57E72846FFF725FE0446DE
:105020000028F5D00E4BFB6602230848BB6607F14B
:1050300068024FF482510FF00EFB6FF07304DCE74F
:105040006FF0150440E700BF3CDA010078C00100B2
:105050005FDA01000880F9FDCCDA0100EEDA010028
:1050600098DA01002DE9F04790F84C3090B00446F2
:10507000002B00F0C38100210FF0A0FB05460028A3
:1050800040F01481B4F86E6084F86D00C6F3C00679
:10509000B607642012F0C5FB2923CDE90636142398
:1050A0000C93C8230E9300212046FFF7FBFD012837
:1050B00002465CD0002840F0C781206806A90FF0A6
:1050C0006FFB0246002840F0BF8194F84C20002E70
:1050D00000F09981089B002A41D0D80742D431467C
:1050E00020460FF06BFB0546002840F0DF80236D63
:1050F000590042BFB4F86E2042F00202A4F86E20BC
:10510000DA0142BFB4F86E2042F02002A4F86E200B
:105110009B0342BFB4F86E3043F04003A4F86E30F6
:1051200020460FF01BFB0546002840F0BF802046BC
:105130000FF0D6FA0546002840F0B8802746A26A4C
:10514000B34B9A4294BF47F8042F47F8043F2068B6
:1051500039460FF02CFB054630B3AE4B19E0002B5F
:10516000C0F24F814FF4A470002109F0A7FB013574
:10517000B5F57A7F97D1A84B059302230493A748EE
:10518000002304AA4FF482516FF07305FCF7ECFC86
:10519000A34B0B9302230A93A04800230AAA4FF4BF
:1051A0008251FCF7E1FC81E00146242206A816F0BA
:1051B000D7FD29461822684616F0D2FDB4F86210D1
:1051C0002046FFF76FFD054600286FD13323CDE958
:1051D000063011230C93C8230E9308260123CDE932
:1051E0000163206842F2107304F170086A4606A950
:1051F000CDF8108005930FF0D3FA0546002855D15D
:10520000216F0ABA11F4000F01F00F03D2B205D1D9
:10521000012B4FD0022B05D1042305E0012B49D0EF
:10522000022B49D013B9012384F86A304E0542BFDE
:10523000B4F86E3043F00403A4F86E30D00742BFD8
:10524000B4F86E3043F48073A4F86E30910742BF17
:10525000B4F86E3043F08003A4F86E30B4F86E609A
:1052600016F002062CD11822314608A8D4F8009076
:105270004FF4007A16F074FD1023CDE9063AC823E6
:105280000E9348461123324606A90C930FF088FA74
:10529000814698B1634B0B9302230A935F483346D0
:1052A0000AAA4FF482514D46FCF75EFC284610B026
:1052B000BDE8F0870223B7E73346B5E7A4F868A056
:1052C00094F836309B06F1D594F86A30012BEDD96D
:1052D000636D002BEAD0544BA365012684F86B6004
:1052E0001822002108A8D4F8009016F039FD1022E9
:1052F0000021684616F034FD4C4BCDF810804FF07D
:10530000060CCDE906C311230C93C8230E9340234A
:10531000CDE901366A4642F2107306A94846059364
:105320000FF03EFA064600285AD194F8803094F8DF
:105330006B2003F00F039A423CD03D4B0B930223AA
:105340000A934FF4845103460AAA3448FCF70CFC34
:10535000B4F86E305E07A9D52422002106A816F005
:10536000FFFCB4F862102046FFF79CFC0646F8B933
:105370000623069301230C93C8230E9302460223AF
:105380002068079306A90FF00BFA064680B90C9B1C
:10539000012B03D1274E089B1E404EB904232068E1
:1053A000A37239460FF003FA064600283FF47EAF99
:1053B000214B16E00423E372A36D20686360394635
:1053C0000FF0F5F906460028C2D01C4B0B930223C0
:1053D0000A93124800230AAA4FF48251FCF7C4FB37
:1053E000174B0B9302230A930C4800230AAA4FF48D
:1053F0008251FCF7B9FB3546124BCAE66FF08505C2
:1054000054E7236573E6002A3FF471AE67E600BFF8
:1054100040787D0114DB0100F9DB010078C0010058
:10542000FBDA01003BDB010080F0FA02F1FFFF80B4
:105430005CDB01000880F9FDBBDB01007ADB0100C9
:105440009ADB0100E5DB01001546A1E6026903468F
:1054500004480021036182F8B010D2F8B4308360B0
:10546000FEF7D8B930020020020600F07F0312D503
:10547000082B05D1010700F00F0306D50E48704731
:1054800010F0780F12D100F00F034C2000EB431006
:105490000A4B18447047082B05D1020700F00F0390
:1054A00006D50748704710F0780FF6D000207047F7
:1054B000044800EB43107047CC200020801F0020E0
:1054C000EC210020EC2000200149024812F00ABB28
:1054D000A81F0020A01000200146014812F099BA30
:1054E000000A002002480022002308F023BD00BF6C
:1054F000000A002013B5124807F0FCFB114B98423C
:105500001AD1114806F0CAF80024104806F00CF928
:105510000F49104800944FF0FF334FF4806208F0B9
:10552000A9FE0D490B4812F0E0F90C480C4912F0A5
:10553000BCFA204602B010BD6FF00400FAE700BFCD
:10554000DD5700000000AD0B2FDE010010C301008D
:1055500010430020A01000201BDC0100A81F002029
:105560004D59000010B50E49BFF35B8F002351E881
:10557000002F012A03D141E800300028F7D1BFF302
:105580005B8F0CD151F8044C143920460EF0FEF814
:10559000783004D12046BDE810400EF0D2B810BDDE
:1055A000A01F002038B5002464F07F00C0B2FFF7D0
:1055B0005BFF01340FF056F9082CF5D10E4D002495
:1055C000E0B2FFF751FF036903B9056101340FF041
:1055D00049F9082C05F14005F2D108480FF042F9CD
:1055E000074BD3F87C2212B9064AC3F87C2206483E
:1055F0000FF038F9002038BD10260020CC20002004
:10560000801F002010220020EC21002010B5054C46
:10561000FFF768FF20B14168204612F03AF9F7E73A
:1056200010BD00BF4009002010B588B01848002206
:10563000002301A908F0D4FA30B3164B164807939B
:1056400006AA4FF48251022406940FF01EF9FFF7C8
:10565000DDFF0F480022002301A908F0C1FA50B174
:105660000E4B0D4806AA4FF48251CDE906430FF0C8
:105670000CF900200AE00198042340600374FFF74E
:105680002BFFFFF721FFF4E70198406008B010BD41
:105690004009002026DC0100C8C0010044DC0100F4
:1056A00098B5022800AF11D8104B1C5CFFF7BCFF67
:1056B00050B1002202740472FFF70EFF0C4B93F8F6
:1056C00024300BB1FFF700FFBD4698BD6C4688B093
:1056D0006A46084BC2E90530032342F8103F0648EA
:1056E0004FF4C2510FF0D1F8A546EDE72CDE0100D2
:1056F000801F002060DC0100C8C001002DE9F041DE
:1057000090F80280064600AF4046FFF7ADFE18F065
:10571000800FF478054625D09CB1032C1FD06D4630
:1057200088B06A462A4BC2F81C80C2E905340423BB
:1057300042F8103F27484FF401510FF0A6F8AD464C
:105740000DE0FFF771FF034648B10122AC77027408
:10575000032202739D60FFF7BFFEFFF7B5FEBD4653
:10576000BDE8F08154B1012CD9D1FFF75DFF0346AC
:105770000028F4D06C7704740473EBE7FFF754FF50
:105780000028ECD0B278144B12F0800F02F0080120
:1057900011D041B1D3F8A836EB6001230374022382
:1057A00003738560D7E702F00F02142101FB023377
:1057B000D3F80836F0E711B1D3F8A837ECE702F0D8
:1057C0000F02142101FB0233D3F80837E4E700BFCE
:1057D0007BDC0100C8C00100007002402DE9F041EF
:1057E00088B0064600AF1422002107F10C0016F025
:1057F000B7FA3378013B052B21D8DFE803F09B0390
:1058000013138D1503233B750024FFF70DFF03468B
:10581000A8B1047400F10802D7E9050182E8030089
:10582000184634E00423EEE796F802804046FFF77E
:105830001BFE837A054633B1013B022B68D9203722
:10584000BD46BDE8F08118F0800FF47824D09CB1FB
:10585000032CF4D06D4688B06A46374BC2F81C80E2
:10586000C2E90534042342F8103F34484FF4015193
:105870000FF00BF8AD46E2E7FFF7D6FE034600282F
:10588000DDD00122AC770274032202739D60FFF722
:1058900023FEFFF719FED2E754B1012CDAD1FFF74E
:1058A000C3FE03460028CAD06C7704740473EDE786
:1058B000FFF7BAFE04460028C1D001230374022377
:1058C00003738560B07805F10C0111F018FF70B119
:1058D0006E4688B06A461A4BC2E90530032342F887
:1058E000103F16484FF4C2510EF0CFFFB546154A8F
:1058F000E968B2F88C328B4206D95B1AA2F88C3276
:1059000007F04CFC2046C2E70023A2F88C32F9E7EE
:105910003046FFF7F3FE92E7381D07F01DFC7B7958
:10592000052B03D13B7913F0600F88D0064B7B61C8
:1059300001246AE7022468E77BDC0100C8C001009B
:10594000A7DC0100801F0020EC2000202DE9F0479B
:10595000A54CDFF898A286B0814600AFFFF7C2FDE4
:10596000804618B91837BD46BDE8F08794F8252061
:1059700098F8103042B9002B00F0B280D8F804102B
:105980009A4811F086FFE9E7042B00F29981DFE8DD
:1059900013F0A70005003F0155017C0119F8043CF4
:1059A0008BB9D8F808306D4688B05B7A6A46904962
:1059B0009048C2E90513032342F8103F4FF4C25147
:1059C0000EF063FFAD4698F80C30D8F80850032B62
:1059D00037D8DFE803F0023E6D726E69864B002215
:1059E00032607260D3F880143170D3F8841471700F
:1059F000D3F88814D3F88C0441EA00217180D3F8DD
:105A00009014D3F8940441EA0021B180D3F898149B
:105A1000D3F89C3441EA0323F3800823EB60306819
:105A20007168764B03C311462B68687A984796F9DC
:105A30000030002B09DBF3883BB1A4F88C3207F06F
:105A4000ADFBD8F8041050469BE70023A4F88C3235
:105A5000F7E76B7F002BF4D02B7F002BF1D00026D3
:105A600067486E774FF0FF324FF0FF332E770EF01E
:105A70000FFF6B693B606B68C7E901363946687A8E
:105A800007F07AF95F4B98420ED06D4688B06A46AF
:105A90005D4BC2E90530032342F8103F55484FF4EF
:105AA000C2510EF0F2FEAD4655480EF0F3FEC8E7C7
:105AB0002B680121687A9847C3E7AB7A6BB9EB7F13
:105AC0005BB94F484FF0FF324FF0FF330EF0E0FE6E
:105AD00007F094FB4A480EF0DDFE2B680221E9E74F
